:100000000C946B000C9410030C9439030C94620351
:100010000C9488000C9496070C9488000C9488002B
:100020000C9488000C94E6060C94CD060C9479068A
:100030000C94F4050C946C080C9488000C948800C3
:100040000C9427010C9488000C9488000C94880070
:100050000C94880007634236B79BD8A71A396856B4
:1000600018AEBAAB558C1D3CB7CC5763BD6DEDFDDA
:10007000753EF6177231BF000000803F0800000097
:10008000BE922449123EABAAAA2ABECDCCCC4C3E8D
:1000900000000080BEABAAAAAA3E00000000BF007C
:1000A0000000803F0000000000084178D3BB438778
:1000B000D1133D190E3CC3BD4282AD2B3E68EC828C
:1000C00076BED98FE1A93E4C80EFFFBE01C4FF7F11
:1000D0003F000000000011241FBECFE5D8E0DEBFC6
:1000E000CDBF10E0A0E6B0E0E0E8F8E102C0059086
:1000F0000D92A836B107D9F720E0A8E6B0E001C01C
:100100001D92A43AB207E1F70E9448040C943E0CF9
:100110000C940000FC018081813039F018F08230AD
:1001200039F033C03E983F9834C03E9A3F9831C072
:100130003E9A3F9A2EC0339A8FB780688FBF2FC0E8
:1001400033982DC0359837C080B78F7780BF80B780
:100150008F7B80BF80B78F7D80BF359A2CC080B7E2
:100160008F7780BF80B7806480BF80B78F7D80BF6E
:10017000359A21C080B7806880BF80B78F7B80BFF1
:1001800080B78F7D80BF359A16C080E0089580E0EB
:1001900008958181813079F2823091F2F8CF8281A5
:1001A0008230E9F218F4882379F2EFCF843011F32A
:1001B000883041F2EACF379A3D9A86B1887F9381A1
:1001C000892B86B9848180936800339A81E00895F1
:1001D0000F931F93CF93C82F8B018093A30040E010
:1001E000682F80E00E94650197B1907E8C2F892B4B
:1001F00087B9369A8FE39CE90197F1F700C00000B8
:1002000080916800811107C085B190E0F801918369
:10021000808381E018C08130A9F484B182958695ED
:100220008695837090E0F8019183808325B130E05A
:10023000220F331F220F331F822B932B9183808336
:1002400081E001C080E0CF911F910F9108951F922E
:100250000F920FB60F9211242F933F934F935F93FA
:100260006F937F938F939F93AF93BF93EF93FF937E
:1002700020916800211103C085B190E00EC02130AB
:1002800061F424B185B190E0880F991F880F991F00
:100290002295269526952370822BE0916900F09196
:1002A0006A00309709F00995FF91EF91BF91AF91E6
:1002B0009F918F917F916F915F914F913F912F917E
:1002C0000F900FBE0F901F9018958130D1F028F03D
:1002D000823059F18330E9F108952AB381E090E04A
:1002E000062E02C0880F991F0A94E2F78095822398
:1002F00050E002C0440F551F6A95E2F7482B4ABBF5
:10030000089527B381E090E0062E02C0880F991F60
:100310000A94E2F78095822350E002C0440F551FF3
:100320006A95E2F7482B47BB089524B381E090E03B
:10033000062E02C0880F991F0A94E2F78095822347
:1003400050E002C0440F551F6A95E2F7482B44BBAA
:10035000089521B381E090E0062E02C0880F991F16
:100360000A94E2F78095822350E002C0440F551FA3
:100370006A95E2F7482B41BB08958130D1F028F00F
:10038000823059F18330E9F108952BB381E090E098
:10039000062E02C0880F991F0A94E2F780958223E7
:1003A00050E002C0440F551F6A95E2F7482B4BBB43
:1003B000089528B381E090E0062E02C0880F991FAF
:1003C0000A94E2F78095822350E002C0440F551F43
:1003D0006A95E2F7482B48BB089525B381E090E089
:1003E000062E02C0880F991F0A94E2F78095822397
:1003F00050E002C0440F551F6A95E2F7482B45BBF9
:10040000089522B381E090E0062E02C0880F991F64
:100410000A94E2F78095822350E002C0440F551FF2
:100420006A95E2F7482B42BB0895813089F028F0A5
:100430008230C9F0833011F1089589B390E002C091
:10044000959587956A95E2F78170FA018083089502
:1004500086B390E002C0959587956A95E2F7817022
:10046000FA018083089583B390E002C09595879543
:100470006A95E2F78170FA018083089580B390E075
:1004800002C0959587956A95E2F78170FA0180839D
:1004900008951F93CF93DF93182FD62FC42F0E9458
:1004A0000B0861E0812F0E9425088D2F0E944308D0
:1004B0008C2F0E9443080E945108DF91CF911F9119
:1004C00008950F931F93CF93DF93C82FD62F8A01E0
:1004D0000E940B0861E08C2F0E9425088D2F0E943E
:1004E00043080E94180860E08C2F0E942508C8016C
:1004F0000E9457080E945108DF91CF911F910F91E0
:100500000895813049F120F0823009F449C05CC07F
:10051000613069F028F0623089F06330B1F056C084
:1005200085B78E7F85BF85B78D7F85BF53C085B763
:10053000816085BF85B78D7F85BF4CC085B78E7FB5
:1005400085BF85B7826085BF45C085B7816085BF9F
:1005500085B7826085BF3EC0613069F028F06230A7
:1005600089F06330B1F034C085B78B7F85BF85B724
:10057000877F85BF37C085B7846085BF85B7877F94
:1005800085BF30C085B78B7F85BF85B7886085BF45
:1005900029C085B7846085BF85B7886085BF22C0C4
:1005A000623019F0633029F007C084B78F7B84BFB5
:1005B00003C085B7806485BF8FB780688FBF8BB756
:1005C00080628BBF81E0089580E0089580E0089507
:1005D00080E008958FB780688FBF8BB780648BBF32
:1005E00081E008958FB780688FBF8BB780688BBF1D
:1005F00081E00895813049F018F0823059F00EC042
:100600007093700060936F0009C070936E006093E8
:100610006D0004C070936C0060936B0081E00895DE
:100620001F920F920FB60F9211242F933F934F9367
:100630005F936F937F938F939F93AF93BF93EF934A
:10064000FF93E0916F00F0917000309709F00995E9
:10065000FF91EF91BF91AF919F918F917F916F919A
:100660005F914F913F912F910F900FBE0F901F9070
:1006700018951F920F920FB60F9211242F933F934C
:100680004F935F936F937F938F939F93AF93BF939A
:10069000EF93FF93E0916D00F0916E00309709F0B9
:1006A0000995FF91EF91BF91AF919F918F917F91AC
:1006B0006F915F914F913F912F910F900FBE0F90CF
:1006C0001F9018951F920F920FB60F9211242F931F
:1006D0003F934F935F936F937F938F939F93AF93CA
:1006E000BF93EF93FF93E0916B00F0916C00309714
:1006F00009F00995FF91EF91BF91AF919F918F9173
:100700007F916F915F914F913F912F910F900FBE0D
:100710000F901F9018954091710081E048274093F9
:10072000710067E080E00E94BD0108958091720031
:10073000909173000E948A050895809160009091C5
:10074000610005968C34910528F4909361008093A4
:10075000600006C08BE490E090936100809360009D
:1007600080916000909161000E948A054091600034
:1007700060E080EA0E94490226E933E040E068EE4A
:1007800073E080E090E00E9451070895809160003E
:100790009091610005978332910528F09093610054
:1007A0008093600006C083E290E0909361008093A4
:1007B000600080916000909161000E948A054091E4
:1007C000600060E080EA0E94490226E933E040E0F0
:1007D00068EE73E080E090E00E945107089581E0A8
:1007E000809376000E94E10641E066E080E00E948E
:1007F000BD010895109276000E94D70640E066E0A1
:1008000080E00E94BD01089581E0809375000E9400
:10081000D70641E067E080E00E94BD0141E065E06D
:1008200080E00E94BD0108951092750040E067E0ED
:1008300080E00E94BD0140E065E080E00E94BD01D3
:100840000E94E106089546E750E065E080E00E94DE
:10085000150245E750E066E080E00E9415028091B5
:100860007500811104C080917600882349F00E94B0
:1008700014040E94FA030E947905109274000895EE
:100880000E94EF030E94680581E080937400089540
:10089000CF93DF9300D000D01F92CDB7DEB780E0BA
:1008A00090E00E94640880E090E00E94D5050E94DC
:1008B000270580916000909161000E948A0541E0C7
:1008C00065E080E00E94650141E066E080E00E9412
:1008D000650141E067E080E00E94650185E0E2E6B5
:1008E000F0E0DE01119601900D928A95E1F7CE01BC
:1008F00001960E948A000E94EA0740E650E060E00C
:1009000080EA0E94610262E082E00E94810263E26A
:1009100074E082E00E94FA0263E080E00E948102BB
:100920006DE973E080E00E94FA0263E081E00E94DA
:10093000810266EC73E081E00E94FA020E941E06CA
:100940002BE833E040E066E970E080E090E00E9450
:1009500034060E943B0726E933E040E064EF71E093
:1009600080E090E00E9451070E9414040E94FA0364
:100970000E9479052FEF85EA9EE02150804090404B
:10098000E1F700C0000062E770E080E00E94E8004C
:100990002091720030917300A4EFB1E00E94240C0A
:1009A000DC01CB01072E7AE0B695A7959795879540
:1009B0007A95D1F7702D90937300809372000E9406
:1009C0008A05809174008823F1F362E770E080E08B
:1009D0000E94E8002091720030917300A4EFB1E012
:1009E0000E94240CDC01CB01072E7AE0B695A79576
:1009F000979587957A95D1F7702D9C019093730008
:100A000080937200809160009091610028173907EF
:100A100028F40E94EF030E9414040FC0821793076A
:100A200028F40E94FA030E94040407C0281739071B
:100A300021F40E9414040E94FA032FEF81EE94E047
:100A4000215080409040E1F700C00000BACF80E024
:100A500090E00E94E0058CE090E00E94F00581E0CB
:100A600090E00E94F00580E090E00E94E80580E0C0
:100A700090E00E94E0058BE090E00E94F00582E0AB
:100A800090E00E94F00580E090E00E94E80580E0A0
:100A900090E00E94E00589E090E00E94F0058FEF71
:100AA00090E00E94F00580E090E00E94E80580E080
:100AB00090E00E94E0058AE090E00E94F0058FE05F
:100AC00090E00E94F00580E090E00E94E805089523
:100AD00080E090E00E94E0058CE090E00E94F0054C
:100AE00081E090E00E94F00580E090E00E94E8053F
:100AF000089580E090E00E94E0058CE090E00E9484
:100B0000F00580E090E00E94F00580E090E00E9417
:100B1000E80508950F931F93CF93DF938B349105CE
:100B200030F48C01839728F403E210E002C00BE458
:100B300010E080E090E00E94E00582E090E00E94FA
:100B4000F0059801ADECBCEC0E94240CEC01D695AC
:100B5000C795D695C795D695C795CE010E94F00545
:100B600080E090E00E94E80580E090E00E94E005CF
:100B700083E090E00E94F005CE01880F991FCC0F12
:100B8000DD1FCC0FDD1FCC0FDD1FC80FD91FC80123
:100B90008C1B9D0B0E94F00580E090E00E94E80510
:100BA000DF91CF911F910F910895BD9ABE98BF9A82
:100BB000BC9A83E58DB91092780010927700089561
:100BC000811105C040E064E081E00E94BD0108950C
:100BD000811105C041E064E081E00E94BD010895FB
:100BE0008FB9779BFECF08951F920F920FB60F9289
:100BF00011242F933F934F935F936F937F938F9322
:100C00009F93AF93BF93EF93FF9341E064E081E044
:100C10000E94BD018FB180937900FF91EF91BF9148
:100C2000AF919F918F917F916F915F914F913F9184
:100C30002F910F900FBE0F901F90189583B7877F4D
:100C400083BF83B78F7B83BF89B7816089BF83B739
:100C5000846083BF83B7826083BF83B7816083BFB3
:100C60008FB780688FBF089530937F0020937E00F8
:100C7000A8EEB3E09B01AC010E94330CAB01BC01B8
:100C8000689415F876956795579547951694D1F71A
:100C9000BB27A72F962F852F8093840090938500E4
:100CA000A0938600B093870080E091E0A0E0B0E0E0
:100CB000841B9109A109B109809380009093810060
:100CC000A0938200B093830082BF809184009091B2
:100CD0008500A0918600B09187000196A11DB11DED
:100CE0008093840090938500A0938600B093870042
:100CF00008951F920F920FB60F9211242F933F93D6
:100D00004F935F936F937F938F939F93AF93BF9313
:100D1000EF93FF9380917A0090917B00A0917C00EB
:100D2000B0917D000196A11DB11D80937A00909332
:100D30007B00A0937C00B0937D0040918400509193
:100D40008500609186007091870084179507A6073B
:100D5000B70791F4E0917E00F0917F00309761F049
:100D6000099510927A0010927B0010927C001092EC
:100D70007D008091800082BFFF91EF91BF91AF9184
:100D80009F918F917F916F915F914F913F912F91A3
:100D90000F900FBE0F901F9018951F920F920FB6D5
:100DA0000F9211240F900FBE0F901F90189583B7CC
:100DB0008E7F83BF83B78D7F83BF83B78B7F83BFD6
:100DC000089583B7887F856083BF08951F920F922F
:100DD0000FB60F9211242F933F934F935F936F930E
:100DE0007F938F939F93AF93BF93EF93FF938091E4
:100DF000880090918900A0918A00B0918B000196A3
:100E0000A11DB11D8093880090938900A0938A0052
:100E1000B0938B0040918E0050918F0060E070E0A5
:100E200084179507A607B707A9F4E0919000F09101
:100E30009100309779F009951092880010928900FE
:100E400010928A0010928B0080918C0090918D00FE
:100E50009DBD8CBDFF91EF91BF91AF919F918F91FF
:100E60007F916F915F914F913F912F910F900FBEA6
:100E70000F901F90189585B5877F85BD85B58F7BB1
:100E800085BD89B7806489BF85B5846085BD85B51A
:100E9000826085BD85B5816085BD8FB780688FBF55
:100EA00008953093970020939600A8EEB3E09B013D
:100EB000AC010E94330CAB01BC01689415F8769527
:100EC0006795579547951694D1F7BB27A72F962F6F
:100ED000852F80939C0090939D00A0939E00B093DB
:100EE0009F0080E091E0A0E0B0E0841B9109A1099F
:100EF000B1098093980090939900A0939A00B093C1
:100F00009B0084BD80919C0090919D00A0919E00CB
:100F1000B0919F000196A11DB11D80939C009093FC
:100F20009D00A0939E00B0939F0008951F920F9282
:100F30000FB60F9211242F933F934F935F936F93AC
:100F40007F938F939F93AF93BF93EF93FF93809182
:100F5000920090919300A0919400B0919500019619
:100F6000A11DB11D8093920090939300A0939400D3
:100F7000B093950040919C0050919D0060919E001F
:100F800070919F0084179507A607B70791F4E09129
:100F90009600F0919700309761F0099510929200B9
:100FA00010929300109294001092950080919800F6
:100FB00084BDFF91EF91BF91AF919F918F917F91F0
:100FC0006F915F914F913F912F910F900FBE0F90B6
:100FD0001F9018950998089861B1637070E080E0DF
:100FE00090E00E9434099B01AC0160E070E080E871
:100FF00090E40E942D0A20E030E048E153E40E9492
:10100000C0090E94030960B986B7846086BF86B7AD
:101010008F7786BF089584EA86BF06B607FEFDCFA8
:1010200081B1887F8830E1F786B78F7786BF0895D2
:1010300084EA86BF06B607FEFDCF81B1887F803186
:10104000E1F786B78F7786BF0895611102C081608E
:1010500003C0613009F48E7F83B984E886BF06B689
:1010600007FEFDCF611105C081B1887F8034E1F7B3
:1010700006C0613021F481B1887F8831E1F786B7FD
:101080008F7786BF089583B984E886BF06B607FECA
:10109000FDCF81B1887F8832E1F786B78F7786BF31
:1010A000089584E986BF86B78F7786BF0895FC01CF
:1010B00084EC86BF06B607FCFDCF91B1987F9035D2
:1010C000E1F783B18083089588E18AB986E880BD1D
:1010D00087E689B910BC08951F920F920FB60F9240
:1010E00011242F933F934F935F936F937F938F932D
:1010F0009F93AF93BF93EF93FF938CB18093A20024
:10110000E091A000F091A1000995FF91EF91BF91AE
:10111000AF919F918F917F916F915F914F913F918F
:101120002F910F900FBE0F901F9018955058BB270E
:10113000AA270E94AE080C9486090E94780938F00C
:101140000E947F0920F039F49F3F19F426F40C9493
:1011500075090EF4E095E7FB0C946F09E92F0E94E6
:10116000970958F3BA17620773078407950720F0A9
:1011700079F4A6F50C94B9090EF4E0950B2EBA2F6C
:10118000A02D0B01B90190010C01CA01A00111248D
:10119000FF27591B99F0593F50F4503E68F11A1639
:1011A000F040A22F232F342F4427585FF3CF4695CA
:1011B00037952795A795F0405395C9F77EF41F16EC
:1011C000BA0B620B730B840BBAF09150A1F0FF0FB6
:1011D000BB1F661F771F881FC2F70EC0BA0F621FA2
:1011E000731F841F48F4879577956795B795F79592
:1011F0009E3F08F0B0CF9395880F08F09927EE0F27
:101200009795879508950E949F0988F09F5798F0B9
:10121000B92F9927B751B0F0E1F0660F771F881FFB
:10122000991F1AF0BA95C9F714C0B13091F00E9415
:10123000B909B1E008950C94B909672F782F882770
:10124000B85F39F0B93FCCF3869577956795B3953C
:10125000D9F73EF490958095709561957F4F8F4FAB
:101260009F4F0895E89409C097FB3EF490958095B0
:10127000709561957F4F8F4F9F4F9923A9F0F92F5C
:1012800096E9BB279395F695879577956795B795DA
:10129000F111F8CFFAF4BB0F11F460FF1BC06F5FC0
:1012A0007F4F8F4F9F4F16C0882311F096E911C0D2
:1012B000772321F09EE8872F762F05C0662371F0F3
:1012C00096E8862F70E060E02AF09A95660F771F07
:1012D000881FDAF7880F9695879597F9089597F9FB
:1012E0009F6780E870E060E008959FEF80EC0895CC
:1012F00000240A94161617061806090608950024F5
:101300000A9412161306140605060895092E03946E
:10131000000C11F4882352F0BB0F40F4BF2B11F4E2
:1013200060FF04C06F5F7F4F8F4F9F4F089557FD41
:101330009058440F551F59F05F3F71F04795880F43
:1013400097FB991F61F09F3F79F0879508951216DA
:1013500013061406551FF2CF4695F1DF08C0161686
:1013600017061806991FF1CF869571056105089437
:101370000895E894BB2766277727CB0197F908954E
:101380000E94D3090C9486090E94780938F00E94C3
:101390007F0920F0952311F00C946F090C947509C6
:1013A00011240C94BA090E94970970F3959FC1F318
:1013B000950F50E0551F629FF001729FBB27F00D03
:1013C000B11D639FAA27F00DB11DAA1F649F662758
:1013D000B00DA11D661F829F2227B00DA11D621FA7
:1013E000739FB00DA11D621F839FA00D611D221F61
:1013F000749F3327A00D611D231F849F600D211D45
:10140000822F762F6A2F11249F5750409AF0F1F0C7
:1014100088234AF0EE0FFF1FBB1F661F771F881F30
:1014200091505040A9F79E3F510580F00C946F09F0
:101430000C94BA095F3FE4F3983ED4F38695779510
:101440006795B795F795E7959F5FC1F7FE2B880FD6
:10145000911D9695879597F90895FA01EE0FFF1F54
:10146000309621053105A1F16115710561F48038CF
:10147000BFE39B0749F168949038810561F080389B
:10148000BFEF9B0741F099234AF5FF3FE105310586
:10149000210519F1E8940894E795D901AA2329F4C4
:1014A000AB2FBE2FF85FD0F310C0FF5F70F4A6958E
:1014B000E0F7F73950F019F0FF3A38F49F779F932F
:1014C0000DD00F9007FC9058089546F00C947509C4
:1014D00060E070E080E89FE308954FE79F775F93B7
:1014E0004F933F932F930E94280B2F913F914F9141
:1014F0005F910E94C0090C94850A29F416F00C949F
:101500006F090C94B9090C9475090E949F09A8F3FE
:101510009638A0F707F80F92E8942BE33AEA48EBE5
:101520005FE70E94D6090F920F920F924DB75EB7F8
:101530000F920E94700BE4E5F0E00E94B70A4F9111
:101540005F91EF91FF91E595EE1FFF1F49F0FE5768
:10155000E0684427EE0F441FFA95E1F74195550BDB
:101560000E94EA0A0F9007FE0C94DE0A0895DF93AA
:10157000CF931F930F93FF92EF92DF927B018C0129
:10158000689406C0DA2EEF010E94D309FE01E894A8
:10159000A5912591359145915591A6F3EF010E94B2
:1015A000AE08FE019701A801DA9469F7DF90EF9089
:1015B000FF900F911F91CF91DF9108959B01AC0196
:1015C00060E070E080E89FE30C94A40B0C946F093A
:1015D0000C94160C0E949F09D8F39923C9F3940F19
:1015E000511DA3F39150504094F059F0882332F0EC
:1015F000660F771F881F91505040C1F79E3F5105DD
:101600002CF7880F911D9695879597F908955F3F60
:10161000ACF0983E9CF0BB27869577956795B7957B
:1016200008F4B1609395C1F7BB0F58F711F460FF50
:10163000E8CF6F5F7F4F8F4F9F4FE3CF0C94BA0976
:1016400016F00C94160C0C94750968940C946F09A0
:101650000E949F09A8F39923C1F3AEF3DF93CF93C0
:101660001F930F93FF92C92FDD2788232AF021971C
:10167000660F771F881FDAF720E030E040E85FEB65
:101680009FE3883920F0803E38F021968F770E94C2
:101690009708ECE7F0E004C00E949708E9EAF0E060
:1016A0000E94B70A8B01BE01EC01FB2E6F57710936
:1016B0007595771F880B990B0E94340928E132E752
:1016C00041E35FE30E94D309AF2D9801AE01FF9083
:1016D0000F911F91CF91DF910E94AE080C94860963
:1016E000FA01DC01AA0FBB1F9B01AC01BF5728F414
:1016F000222733274427507820C0B75190F4AB2FCE
:101700000024469537952795011CA395D2F3002018
:1017100071F0220F331F441FB395DAF30ED00C94EF
:10172000960861307105A0E88A07B94630F49B013C
:10173000AC016627772788279078309621F02083A0
:1017400031834283538308950E94B80B0C94860919
:101750000E947F0958F00E94780940F029F45F3F09
:1017600029F00C946F0951110C94BA090C94750965
:101770000E94970968F39923B1F3552391F3951BC0
:10178000550BBB27AA2762177307840738F09F5FA2
:101790005F4F220F331F441FAA1FA9F335D00E2E0F
:1017A0003AF0E0E832D091505040E695001CCAF77C
:1017B0002BD0FE2F29D0660F771F881FBB1F26173F
:1017C00037074807AB07B0E809F0BB0B802DBF0116
:1017D000FF2793585F4F3AF09E3F510578F00C94E5
:1017E0006F090C94BA095F3FE4F3983ED4F38695F1
:1017F00077956795B795F7959F5FC9F7880F911D06
:101800009695879597F90895E1E0660F771F881FF1
:10181000BB1F621773078407BA0720F0621B730BA4
:10182000840BBA0BEE1F88F7E09508959F3F31F0C7
:10183000915020F4879577956795B795880F911DFE
:101840009695879597F90895A29FB001B39FC0011F
:10185000A39F700D811D1124911DB29F700D811DDC
:101860001124911D08950E94240CA59F900DB49FF2
:10187000900DA49F800D911D11240895F894FFCF21
:081880003C0001020806010012
:00000001FF
